:020000042000DA
:1000000000980020A5040020AD040020C5040020B5
:1000100000000000000000000000000000000000E0
:10002000000000000000000000000000DD040020CF
:100030000000000000000000F5040020F70400208C
:100040006B240020053103000D310300DB24002068
:10005000ED2400208D310300272500202F250020CE
:10006000F9040020F904002047250020AD310300E9
:1000700089180020831B0020F9040020F9040020C7
:10008000F9040020F9040020F9040020F7160020EC
:10009000FB160020FF160020031700200717002082
:020000042000DA
:1001600032000000550600204710002055260020D0
:10017000000000000000000063800200BD8002005B
:10018000410E0020FB80020019810200358102002F
:100190005D8102003D2400203B0600202D0E002042
:1001A000370E002000000000000000003F000000AB
:1001B000F4850020000A0000680D0800900200008D
:1001C00068070800F405000004100800000800009B
:1001D000000000002000000048000000580000005F
:1001E0006800000004010000160100002801000062
:1001F0002E010000202A00008E2E000001000000C9
:1002000088130000D1100020E9600200FD93020075
:10021000671C002019280300A5740200BD220020DD
:1002200003000000D52002005D260020040000002D
:10023000D74902000F490200831D020063910200AA
:10024000B7910200BF910200078202007182020092
:10025000C03A0020AD830200938402004185020071
:1002600015860200378602005F860200758602004E
:10027000F9870200258902005D8A0200D38C020002
:10028000098D02000F900200438D0200278E0200AC
:10029000F98E0200478F0200B30D0020D58F0200B7
:1002A00049510200775102002F5202001000000055
:1002B00020030000803E000000000000000000005D
:020000042000DA
:1002C000504600030003983A6400F401B80B000C98
:1002D000B80B120030003000CD009A01120024004B
:1002E00030006400B0001800280012001200D0078F
:1002F0000000FFFF00000000000000000000000000
:100300001F000002444131343538302D30310000B7
:1003100000000000000000000000000000000000DD
:0403200000000000D9
:020000042000DA
:10034000FFFF010000C201000000000000000000EB
:100350000000F4010100011B0A071AFFD200021578
:10036000585CDE931B0142CC9A1325009BEDC65EC0
:1003700000010002C5000000000009FF00605257A4
:100380002D424C450000000000000000000000006D
:100390000000000000000000000044413134353806
:1003A00078000000000000000000000000000000D5
:1003B000000000000000000000000000000000003D
:1003C000000000000000000000000000000000002D
:1003D0000000000000000000010000CAEA80D00711
:0403E000064064323D
:020000042000DA
:100440000348854603F0C4F800480047C72002006F
:10045000009800200F4906200880FF200E49013037
:1004600008600E4988683E2290432E308860002242
:10047000052000070280018A0F231B021943018215
:1004800001210748C90404C1401E0028FBDA62B6F6
:10049000704700000034005080E100E0003300505D
:1004A000FF0B00001548804715480047042071469F
:1004B000084203D0EFF3098012490847EFF30880A0
:1004C0001049084704207146084203D0EFF3098021
:1004D0000D490847EFF308800B490847042071468F
:1004E000084203D0EFF3098008490847EFF308807A
:1004F00006490847FEE7FEE7FEE700005504002036
:1005000041040020510A002011050020C3050020ED
:1005100005221207518A8023194351821249036828
:100520000B6043684B6083688B60C368CB60036972
:100530000B6143694B6183698B61C369CB6108625D
:100540000A48836A4B62C36A8B62036BCB62C36BDC
:100550000B63436B4B63806B8863908A800601D585
:1005600000BE7047FEE700000018080000ED00E044
:100570008307FF22DB0E9A408907090E9940002865
:100580000BDA0007000F08388308C9489B001818C9
:10059000C36993430B43C36170478308C5489B00FD
:1005A0001B1818689043084318607047028908892F
:1005B000C149101A80B2884201D901207047002039
:1005C000704781692039897F082904D2BB4A890094
:1005D000515881617047FEE710B5BA48B8490161CA
:1005E000B9494161B9498161B949C161B9490162FA
:1005F000B9494162B9498162B949C162B9490163E6
:10060000B9494163B9498163B949C163B749AD4843
:100610005C3140300160B7494160B7498160B749FA
:10062000C160C8160124B649E4060C600021FFF73A
:100630009FFFB3488038046010BD10B5B149002059
:10064000086000F0B1FB01208007016B49004908F8
:10065000016310BD1CB5AC4901200870AB490820EE
:100660000880052424076088A94E0425002823D18A
:10067000708801210843708000200190401C019087
:100680001428FBDB608980088000401C6081608941
:100690004006FCD56089284360819E48608060895F
:1006A000A8436081A08A0006FCD56089800880008C
:1006B000608160890006FCD502F09CFF00F09AFD85
:1006C00000F0A4FA94480178017094480178017010
:1006D000012002F095FFFF2701370D2039468001E8
:1006E00002F094FF01F006FE00F016FC00F0D6FACE
:1006F000042000F0D6F8072000F0D3F80A2000F01C
:10070000D0F8062000F0CDF80B2000F0CAF8012048
:1007100000F0C7F8022000F0C4F8002000F0C1F893
:100720007F48006802F078FFB8050168394301602E
:1007300000F006F90121C81EFFF71AFF02F0EEF9DA
:10074000FFF77BFFA220E08271484188E0229143BD
:10075000A0314180012002F065FF554E022720891B
:1007600000061BD501208007006B000416D402F0A0
:100770005FFFC00712D1042002F060FF019002F079
:1007800063FF0198002809D000200190042101A8EE
:1007900002F060FF002801D000F019FB61480178E9
:1007A000002901D00021017002F0E0FC72B601F0D6
:1007B000C7FD69460870042806D002280CD003281B
:1007C0000AD001286AD06AE057480078012802D090
:1007D0000320087000E00F70208A284320825348CD
:1007E000C0690128087811D9032844D102F038FFE4
:1007F000002840D002F03AFF00283CD0032002F04D
:100800003BFF002837D04A48077008E0032832D160
:1008100002F032FF00282ED04549012008703069CF
:1008200028433061608A202188436082208A3843CF
:10083000208268460178608A02291ED0284360829F
:100840007F202288800180231A4322800022521CAC
:10085000D2B20A2AFBD3628A10231A436282354A33
:10086000401E5061208880229043208002290AD0B7
:10087000032908D00DE06846C6E728436082608AF5
:1008800010218843608222484188FF22013291432F
:10089000418030BF3069A843306100E030BF62B6AC
:1008A0005DE7C106C90E01208840234908607047F2
:1008B00000ED00E000E400E030750000A03A002008
:1008C000942703000084004062B600DF28A30200E2
:1008D000704701DF1CCA0200F8BD02DF40CB0200F6
:1008E000F5E703DF84D4020004DF89B0BC330200E3
:1008F000F8BD05DFF8BD06DFEC0C030070BD07DFB7
:1009000080E100E08C0308000080002000330050EC
:10091000200000501605000000000800202A0800F2
:10092000049000207680002054020800E00100209E
:10093000C40608000080004080E200E0704700002C
:100940003E480178002902D08021417070473C491F
:10095000002008703B49C87070473848017800296A
:1009600002D0812141707047354901200870354916
:10097000C870704731480178002902D08221417047
:1009800070472F49022008702E490120C870704717
:100990002A488178002904D0491E0906090E817071
:1009A00017D142780021002A04D09207920F0270DA
:1009B000417004E00278002A01D0521E0270120633
:1009C000120E017005D0012A02D0022A01D1D1E70E
:1009D000C3E7704710B5194CA078401CA070207870
:1009E000002805D102F04EFE421CFFF7A9FF22703D
:1009F00010BD12490120C870704710490020C8700E
:100A000070470E48C07870470020EFF31081012234
:100A100082F31088052212071289120605D40A48AB
:100A2000028901231A4302811846002900D00121BE
:100A300081F31088704705480078704701800020D6
:100A400054020800C60608000033005068800020E9
:100A500005221207118A042319431182118A0223E5
:100A6000194311821189402319431181184B012127
:100A70001960184B08211980518A8023194351822B
:100A8000154903680B6143684B6183688B61C368D8
:100A9000CB6103690B6243694B6283698B62C369F3
:100AA000CB6208630D48836A4B63C36A8B63036B35
:100AB000CB63C36B084940310B60436B4B60806B69
:100AC0008860908A800601D500BE7047FEE700006E
:100AD00080E200E0003300504018080000ED00E024
:100AE00070B5674800220169D243002901D0114640
:100AF00000E00121CB170C0F1B0123430C01016106
:100B000060490D684E682C4333430C604B60436969
:100B1000002B01D0144600E00124E317E50E5B0131
:100B20002B4344610D6864014E682C4333430C60D1
:100B30004B60C368002B01D0144600E00124E3178A
:100B4000650FDB002B43C4600D68E4004E682C4346
:100B500033430C604B608368002B00D1012282601C
:100B6000D017930F800018430C6892004B68224303
:100B700018430A60486070BDF8B5002403252D02B3
:100B800002232A4604212046009400F0D6FB0123CC
:100B90001E02324605210020009400F0CEFB1423F3
:100BA0002A4603210020009400F0C7FB132332469D
:100BB00002210020009400F0C0FBF8BD7CB50126A6
:100BC0003148F50405600221002000F0DEFB00241E
:100BD000002815D00221002000F0D7FB002809D002
:100BE00002F0E1FA00940123019413220221002073
:100BF00000F0ECFB254805602348803805607CBD8B
:100C000002F0E6FA002300960194EEE71CB50524F5
:100C10002407208A022188432082A08A0007FCD56D
:100C2000FFF7DAFCFFF7A8FFA08880210843A08027
:100C30000321092000F0A5FD608A2021084360827D
:100C40001349132000F03DFD0221002000F09DFB20
:100C5000002400280ED00221002000F096FB00287E
:100C600007D000940123019413220221002000F0F8
:100C7000ADFB1CBD0120002301940090F4E70000AF
:100C8000289000202090002080E100E080E200E039
:100C9000BD0B0020934900204860704770B50520C7
:100CA000000701893022914301810189802211438B
:100CB0000181018989088900491C01810189082372
:100CC0001943018188490C8814430C80448A9C4351
:100CD00044820589402425430581058A0426B543BD
:100CE0000582858AAD07FCD57E4E002575600D888E
:100CF000012635430D804D89AE057C4D0E8801D50A
:100D00002E4300E0AE430E800D887826B54328358B
:100D10000D800D88062635430D80458A1D4345828A
:100D20000B8893430B800289A24302814889800586
:100D300003D56D4905206031888001208007016856
:100D40008215914301606A4801683F225202914333
:100D5000421489180160016802031143016070BDEB
:100D600005200007018830221143018001880322F9
:100D7000114301807047052000070188302291430C
:100D80000180018889088900018070470321594842
:100D900009028181082242800021491C9629FCD346
:100DA000828070477047704710B5534802F070FC5E
:100DB00010BD70B54C4C6088C006050F02F06EFC8B
:100DC00061881E2291436A001143618070BD10B595
:100DD0004A490120C863C86B0028FCD10120800764
:100DE000C16947480268914201D20022026019237A
:100DF0008A1ADB019A4212D3016002F055FC414A83
:100E00001188884201D9411A00E0091A89B21829CB
:100E100005D31080012002F04DFC02F051FC10BD02
:100E200008B5009808BD08B5009808BD08B502F0DF
:100E30004DFC009008BD08B502F04EFC009008BDC6
:100E400008B5314901204A695206D20F13D04A69C8
:100E50009206D20F0FD000220A610092FF225F3269
:100E6000009B5B1C00939342FAD34969C907C90FE1
:100E700002D002F037FC002008BD40183721C00026
:100E800009014018704710B5204A00201178002948
:100E90000DD01A490120C863C86B0028FCD101207D
:100EA0008007C0691A490968884201D2012010BD33
:100EB0000020107002F0E6FB022803D002F0E2FBF3
:100EC00001280BD113490820088005200007818ADA
:100ED0008906FCD4418A802291434182002010BDC2
:100EE0000020704708800020200000500010000003
:100EF00000020040203000507D120000C000004081
:100F00007C040800780408000010005000800020D5
:100F10004C3C00200033005030B58B4A8B49D00543
:100F2000048880231C430480894C65892D0701D4E3
:100F3000521EFAD2874C01222260874C0A882280F6
:100F4000864A4988118001889943018030BD00207C
:100F5000704770477047704700207047012189072C
:100F6000086B0722104308637047704710B57D492E
:100F70007B4808607C494C2008807B4B7B4A203BA7
:100F80001A827C497A4848807C487B4901807A49AA
:100F900019314180222141818121890001827849D2
:100FA00041827849018376491131418373497648FA
:100FB0002031888041217548090181807449C180B0
:100FC000734C1034C48101824182891C8182611F6B
:100FD000C182FF21463101836E4941836E49592008
:100FE00008806D486D4C20300480432444806C4C54
:100FF0004C82D5218180FF21D33101816949418112
:10100000694981816A496948088057486949603857
:101010004180C18810242143C18060490A3901817F
:10102000514C6549403C61805A82082141814B48BE
:10103000594900884039088247486049008808803B
:1010400010BD4008704700B58BB05D4A42625D4AF2
:1010500082625D4A42615D4AC2625D4A02605D4AE7
:1010600002625D4A42605D4AC2613E4A3C480021DC
:1010700010603C484038026B03129A430263426B93
:101080001F231B049A4303231B04D21842635448B2
:101090000268C3129A430260026803139A43026013
:1010A00068464154491CC9B22829FAD3014628226E
:1010B0004C4802F01DFBFFF759FF02F0F5FA4A49D0
:1010C0000880002002F0F6FA02F0FAFA0BB000BD38
:1010D00010B5244A0F2122480902106021484038E7
:1010E000426B1F231B049A4303231B04D218426341
:1010F00000060268D208D2000260052000070289BB
:1011000092089200521C0281028908231A4302812C
:10111000028A0A4302820E484189890504D5018862
:101120007822914308310180FFF720FF2F48006F9C
:101130000078002804D02E4800880B496039C88008
:10114000012002F06FFA10BDA0860100087F0400A4
:101150002000005000800040560208004A030800AA
:101160004C05540780000040602C00507F7F000039
:10117000AC290000002200500909000000240050A2
:101180002204000030D00000EE11000000250050C5
:101190002E02000044200000402800500D95000061
:1011A00002420000E4DC00001092000053780000CE
:1011B000002A00508B1000009DD500000026005032
:1011C0004F0F0020530F0020590F00205D0F00200B
:1011D000550F00206B0F0020570F002043100020F8
:1011E000000200402000080078040800E001002010
:1011F00052040800FEB50020FE4E034628220021BE
:10120000424392198C00491C13510A29FADB401CF5
:101210000428F3DBFFF764FCF6480022083802607C
:10122000426015460024F4486900475A0120A04056
:1012300080B207421CD0282068438019A100405882
:10124000411C19D0002810D0C117224602F056FACE
:101250002A0102F053FAE74B083B1A685B68104317
:10126000E44A1943083A10605160641C0A2CDDDB23
:101270006D1C042DD6DBFEBD0095019400BEE3E796
:10128000F8B5164604460D460A461F4601200021C1
:1012900002F034FA220102F031FAD64B083B1A6808
:1012A0005B6810401940084300D100BE032C00D1F8
:1012B0000424D24960014018690008183E43C680E2
:1012C000F8BD70B504460D460A460120002102F023
:1012D00015FA220102F012FAC64A083A1368526857
:1012E00018401140084300D100BE032C00D1042453
:1012F000C249600140180121A940818070BD70B5CC
:1013000004460D460A460120002102F0F7F92201A9
:1013100002F0F4F9B74A083A1368526818401140CD
:10132000084300D100BE032C00D10424B34960015E
:1013300040180121A940418070BDFFB581B00C4625
:1013400005460A461F46012000210A9E02F0D6F9F2
:101350002A0102F0D3F9A74B083B1A685B681040DA
:101360001940084300D100BE002E2146284602D075
:10137000FFF7C5FF01E0FFF7A4FF3B4621462846E3
:10138000039AFFF77DFF05B0F0BD70B504460D462A
:101390000A460120002102F0B1F9220102F0AEF963
:1013A000944A083A1368526818401140084300D123
:1013B00000BE032C00D1042490496001401800882D
:1013C0000121A940084000D0012070BDFFB514469E
:1013D0000D4606460A4681B00120002102F08EF932
:1013E000320102F08BF9834B083B1A685B681040AE
:1013F0001940084300D100BE81A0006800908148D8
:1014000080892346133BFF2201329A400B99904377
:10141000002901D0012700E00027D10701D00021D9
:1014200038E0910701D5012134E0510701D50221AF
:1014300030E0110701D503212CE0D10601D50421AC
:1014400028E0910601D5052124E0510601D50621A9
:1014500020E0110601D507211CE0D10501D50821A6
:1014600018E0910501D5092114E0510501D50A21A3
:1014700010E0110501D50B210CE0D10401D50C21A0
:1014800008E0910401D50D2104E0510401D50E219D
:1014900000E00F218F405B493843888188890B9F8A
:1014A00080098001384388810F8A9743D00701D093
:1014B000002038E0900701D5012034E0500701D525
:1014C000022030E0100701D503202CE0D00601D522
:1014D000042028E0900601D5052024E0500601D51F
:1014E000062020E0100601D507201CE0D00501D51C
:1014F000082018E0900501D5092014E0500501D519
:101500000A2010E0100501D50B200CE0D00401D515
:101510000C2008E0900401D50D2004E0500401D512
:101520000E2000E00F200A9A824017430F820F8A94
:101530000122104698408743C30701D0002038E0BD
:10154000830701D5012034E0430701D5022030E0B4
:10155000030701D503202CE0C30601D5042028E0B1
:10156000830601D5052024E0430601D5062020E0AE
:10157000030601D507201CE0C30501D5082018E0AB
:10158000830501D5092014E0430501D50A2010E0A8
:10159000030501D50B200CE0C30401D50C2008E0A5
:1015A000830401D50D2004E0400401D50E2000E0A5
:1015B0000F20049B83401F430F8212486100403874
:1015C0000818418B6B4689099B5D89015B1919439A
:1015D0004183A007C30EFF21994080209840002C32
:1015E00018DA23071B0F083B9D08074BAD00ED18C9
:1015F000EB690BE028900020D63A00200030005024
:1016000001090F190014005000ED00E08B43034363
:10161000EB6107E0A5083D4BAD00ED182B688B434F
:1016200003432B60E006C00E824039480260AAE600
:1016300010B5384CE38901221146133881408B43A1
:10164000C80701D0002038E0880701D5012034E028
:10165000480701D5022030E0080701D503202CE01F
:10166000C80601D5042028E0880601D5052024E01D
:10167000480601D5062020E0080601D507201CE019
:10168000C80501D5082018E0880501D5092014E017
:10169000480501D50A2010E0080501D50B200CE013
:1016A000C80401D50C2008E0880401D50D2004E011
:1016B000480401D50E2000E00F2082401343E3814F
:1016C00010BD154A8000801880384163704710B5FE
:1016D0000446FFF7ADFF1049A00040188038406B6A
:1016E000002801D0804710BDE106C90E01208840C6
:1016F0000A49086010BD1320E9E71420E7E7152028
:10170000E5E71620E3E71720E1E7000000E400E04A
:1017100000E100E000140050C890002080E200E0EA
:10172000AD484069C007C00F01D0002070470120BC
:101730007047A94922200861704700B5A6490122D7
:1017400048694006C00F16D048698006C00F12D005
:10175000FFF7E6FF00280ED00869022398430861CE
:10176000FF2387330220401C9842FCDBFFF7D8FFA1
:10177000002803D000E00022104600BD22200861AE
:10178000F9E730B4944A93898024A3439381872353
:1017900013810023938095892543958193809380BD
:1017A000108091819089A04390818C4960010860EC
:1017B0008B490A684024120A120222430A608749B0
:1017C0008039086087490860874803702038436182
:1017D0008361036143608360036030BCADE77E4991
:1017E00011200860704700B57B4A0121506940060E
:1017F000C00F14D050698006C00F10D0FFF790FFC3
:1018000000280CD013201060FF2387330220401CD7
:101810009842FCDBFFF784FF002803D000E00021A2
:10182000084600BD11201060F9E76B4801690222EB
:101830009143016170476C482038006870476648E2
:10184000A021016141698906C90FFBD041694906A0
:10185000C90FF7D0704710B5634C203C2161143498
:101860000DC45D48012142688A430A43426010BDAD
:1018700010B55D4C203C02C40DC457494868022293
:1018800090431043486010BD10B553488168090764
:10189000090F01291FD0022921D004291CD00C29AD
:1018A00019D151490978012913D141690906C90F94
:1018B0000FD04D49002220390A614A6183885B08B4
:1018C0005B008380CB69002B03D0CA61002101201B
:1018D000984700F019F810BD00F034F810BD00F082
:1018E00053F810BD00B53C4841694906C90F09D0FD
:1018F00040698006C00F05D0FFF712FF002801D015
:10190000002000BD012000BD30B437480021203840
:10191000314B364C09E01A68227045692A70026919
:101920006D1C521E4561491C02615A69D207D20FD3
:10193000F1D143691A7042610261C369C26130BC6E
:101940000220184730B428480021284C2038224B68
:101950000BE01A6822704569491C2A7002696D1CE7
:10196000521E45610261002A05D05A69D207D20F82
:10197000EFD130BC704700234361C269002AF8D020
:10198000C36130BC0020104730B41748124D2038D6
:101990001149603584680CE043681A780A6002686F
:1019A0005B1C521E43600260002A02D12278002A8A
:1019B00004D0AA8B9207D20FEED1DAE70022426060
:1019C0004B680224A3434B60C1680029D1D0C26098
:1019D00030BC0020084700000010005080E100E00B
:1019E0000CE400E080E200E03C800020DC9000207D
:1019F00030B4734C72497348603409E043681A7814
:101A00000A6002685B1C521E43600260002A05D017
:101A1000A28B9207D20FF1D130BC704700224260F6
:101A20004B680224A3434B6081680029F4D0826094
:101A300030BC0020084730B5614A93898024A34315
:101A400093810723138100239380958925439581F2
:101A500093809380108091819089A04390815A490E
:101A6000A0010860594A1168FF242402A1434400E0
:101A70002143116054498039086055490860514834
:101A800003760361C3604360036030BDD3E74C4914
:101A90002220086170474A4922200861704708B532
:101AA000474901204A695206D20F13D04A6992066B
:101AB000D20F0FD000220A610092FF225F32009BFA
:101AC0005B1C00939342FAD34A69D207D20F02D02B
:101AD00022200861002008BDE1E73948A02101610A
:101AE00041698906C90FFBD041694906C90FF7D082
:101AF0007047F2E7334B5A61D960186130480121D1
:101B000042688A430A4342607047F3E710B52D4CA0
:101B1000A26021606060FFF76BFF6068002805D05D
:101B200027494868022290431043486010BDEDE702
:101B300010B5234881680907090F01291AD0022925
:101B40001CD0042917D00C2914D11E4A117E01295A
:101B500010D141690906C90F0CD00021D160116173
:101B600083885B085B0083805369002B02D00120CF
:101B70005161984710BD00F005F810BDFFF738FF20
:101B800010BDD5E70F490E4809E002680B691A70CD
:101B9000CA685B1C521E0B61CA60002A04D04269ED
:101BA000D207D20FF1D1704700220A6143685B0867
:101BB0005B0043604B69002BF5D000204A61184759
:101BC000001100504080002080E100E00CE400E0C3
:101BD00080E200E070B5EFF31085012080F31088FB
:101BE000264801F091FD0446002D1DD0012080F310
:101BF0001088002C23D020462038C08B20498842F2
:101C00001DD16189208901F085FD05000ED0214696
:101C10001031A38962892089A847002806D00128AD
:101C20000DD002280BD105E00020E0E7204601F0AE
:101C300077FD04E0114821460C3001F077FDEFF309
:101C40001084012080F310880C480068002802D11D
:101C5000012001F071FD002C03D0012080F31088D9
:101C600070BD0020FAE710B5BC21064801F06AFDFE
:101C70000549012001F06CFD10BD0000A805080019
:101C80003883000004060800D51B002070B51646F6
:101C90000D46104601F062FD002869D0340A304636
:101CA00001F05CFD012812D0A87A1E2811D0294627
:101CB0000A310E2845D019DC801E030001F054FDC6
:101CC0000B255829582D58315839583D58000220B5
:101CD00070BD3146274801F04DFD0021204601F03E
:101CE0004FFD0221304601F051FD41E018283CD063
:101CF00006DC102819D012282BD0162838D130E055
:101D0000522822D0D22833D127E0204601F044FDCA
:101D10002EE0204601F046FD2AE0204601F048FD75
:101D200026E0204601F04AFD22E0204601F04CFD6D
:101D30001EE0204601F04EFD1AE0204601F050FD65
:101D400016E0204601F052FD12E0204601F054FD5D
:101D50000EE0204601F056FD0AE0204601F058FD55
:101D600006E0204601F05AFD02E0204601F05CFD4D
:101D7000002070BD01280000F3B581B001980C4629
:101D80000102CA1D0E310223344801F053FD0470D4
:101D900001990546022732488E00002C06D0042CFB
:101DA00016D0062C10D0072C3FD108E0815905220F
:101DB0004968897C114069708059C77335E00846CD
:101DC00001F03EFD687030E080590F21C1732CE0B6
:101DD000044680594068417C012902D1007E0128D7
:101DE0000FD0019801F032FD01210028A0590BD03D
:101DF0004268D07D00281CD001281AD004280DD0BC
:101E00000FE0002068700DE04068C27D022A01D01A
:101E1000042A06D1007C02280BD102E0107C0228A3
:101E200007D06F70A1590320C873284601F014FD34
:101E3000FEBD6970F6E701460A780120042A01D93F
:101E4000002070474A78002A01D0012AF8D10A7987
:101E5000082AF5D849790829F2D87047021C0000F1
:101E600028050800FFB589B00D4600206946059099
:101E700008720B98000A009001F0E8FC07460B98E6
:101E800001F06CFC00287DD00B982978000A8400B2
:101E9000784E012963D0042904D0062948D00729A7
:101EA00068D125E03059C17B032901D0042961D1D3
:101EB000697800291AD040681022A91C01F018FC8A
:101EC000002F06D03159C87B032807D0042808D03A
:101ED00050E03059C07B032803D04BE00B20C8737F
:101EE00048E00521009801F0BDFC43E00120B6E088
:101EF0003059C07B0E283DD1009801F0A1FC002193
:101F000003E02A18401C9170C0B21028F9D3688AE7
:101F100069460883294606A808221431023001F0D8
:101F2000E7FB06ABAA1C3946009801F0A1FC21E0B2
:101F30003059C07B0F281DD1AA1C0A21009801F03E
:101F40009DFC002F04D03946009801F09DFC11E063
:101F500000231A463946009801F09CFC0AE0012F44
:101F600008D10B9801F0FAFB01281CD0002801D001
:101F7000022005906846007A002811D002AA0521A7
:101F8000009800E00CE001F079FC6846027A6020DD
:101F900002436846027201233946009801F07AFC38
:101FA00005980DB0F0BD3059C07B0228E2D16878A9
:101FB000002851D002210B9801F0E8FB305907228C
:101FC0004068A91C173001F093FBE878002804D181
:101FD00030594068407C01283AD0009801F060FCFC
:101FE000002837D0297A009801F060FC002833D00F
:101FF000009801F061FC0121009801F063FC0028C9
:102000002CD030594068417E00292BD0042929D09A
:10201000C17E027D1140C17630594068017F427D0A
:10202000114001776846007A0028A7D13059022173
:1020300042680098173201F021FC30594168403164
:10204000897B002913D004210098FFF795FE91E7C2
:10205000022004E0062002E0082000E00320694698
:1020600008728BE70021C17630594068D9E70B210F
:10207000C1737FE728050800F8B50D4606468100C4
:102080002B48EA884458521C20686B89018F294FDD
:1020900051430091014640314A89C989511A8AB297
:1020A000991A89B2B94214D29A4212D0294601F043
:1020B0000FFC2D892049009801F010FC2818801C85
:1020C0004034E0823002401C80B2042101F05EFB0B
:1020D000F8BD2821304601F007FCF8BDF8B50546EB
:1020E000870013480C46C059C9880068114E024643
:1020F00040325389D2899A1A92B28B1A9BB2B34258
:1021000011D20B4E8A420ED001F0F4FBF059052299
:102110005F30611C01F0ECFA2802401C80B20521FE
:1021200001F034FBF8BD2821284601F0DDFBF8BDA5
:102130004C030800FF7F00001027000070B5044624
:10214000007800250D2801D00A2200E002225A4919
:102150004B7A002B06D00D2804D0637C032B01D0D2
:10216000432551E0097A8A4339D10D2809D00E2838
:1021700002D00F2803D134E0607C032804D340252B
:1021800042E0607C0328FAD8A07C0428F7D20A2910
:1021900008D0607C012822D0022820D06078032853
:1021A00009D811E001F0ACFB012806D160780328C2
:1021B00003D0002801D0492526E001F0A1FB00282A
:1021C00002D160780228F6D83020035D22462046EE
:1021D000E17C3132143000F019F8054614E0422554
:1021E00012E001F08DFB012807D16078052804D1A9
:1021F000A01D01F08BFB0028DDD001F081FB002841
:1022000002D160780228D6D8284670BDFFB50020DC
:1022100086B001216A461170044605910021002C08
:1022200006D0089D099A1F239A4234D9402032E0F3
:102230001C23069D079AF7E76B185E78330001F0C0
:1022400093FA1D26101010101010101010262626BC
:1022500026262626262626262626101010101010A2
:102260002600059B03E06F46FF5CB74204D05B1E6F
:102270005BB2002BF7DA03E0002B01DB4A2006E01B
:10228000059B6F46FE54059B5B1CDBB205936B5CA4
:10229000491C5918C9B2914201D20028CCD09142B0
:1022A00002D04A200AB0F0BD641CE4B2022CF9D27C
:1022B0000028B3D0F6E700009805080070B5164670
:1022C0000C46054601280FD106221749174801F090
:1022D00023FB002808D006221449304601F008FAF2
:1022E00006202070002070BD32462146284601F0AD
:1022F00019FB70BD70B50E480E49C40522888025B3
:102300002A4322800C4A53891B0701D4401EFAD26B
:102310000A4A012010600622044801F0E9F92088E9
:10232000A843208070BD0000383E03005C80002080
:10233000A0860100D47F04002000005000800040EF
:10234000F8B5374C0026606D0090FEF75AFB354D0E
:10235000002802D12879022801D100200090FEF740
:1023600092FD002859D101F0E3FA002855D0E87811
:102370000126002851D005273F07B88AC00701D0A1
:1023800004264AE001F054F9002846D12648806925
:10239000002801D0606D0090A978684601F0CEFA5F
:1023A00000283AD0A978684601F054F9002834D0C2
:1023B00001208407E16B890A89020143E163E06B34
:1023C0001A490840972189020843E063E06B07211E
:1023D000C002C00A49050843E06300980426C00211
:1023E000642101F07BFA1249401E08602979002916
:1023F00000D0012101F0A8FA0E48C06A8047206B86
:102400000004C00FFBD00C480168C905FCD501F0E1
:10241000A1FA38898021884338813046F8BD000010
:1024200060020020C6060800A8050800FF03E0FFC0
:10243000648000201C0708000002004010B5012441
:10244000A407A06BFEF7F7FC534901F047FA2722D7
:102450001201511A00D10121504A50601160206BC5
:10246000082188430843206310BD38B50020009040
:102470004B4908200880FEF773FC0524240702E07E
:1024800000BF00BF00BFA08A0006F9D560898008A0
:102490008000608143484188490849004180FEF737
:1024A0006AFCA08A400701D5FEF7B0FB2089802195
:1024B00008432081208A042188432082A08A800743
:1024C000FCD5394948050A68D20202D4026952078C
:1024D00002D4009A002AF6D038BD10B501F040FAB7
:1024E00001F044FA31490120087010BD10B501F027
:1024F00043FA05200007418A8022914341822848FF
:102500000189490849000181D005816904221143EC
:10251000816101F037FA01F03BFA01F03FFA2349FB
:102520000020087010BD10B501F03EFA10BD10B5C6
:1025300001208007008A000704D501F03BFA1B49FF
:102540000420087010BD70B519480088850616482B
:10255000AD0E44681748006F0078002802D1284665
:1025600001F02EFA14480089104EC00507D5200648
:102570000BD5E00709D0284601F028FA03E0200631
:1025800003D5E00701D003203070200403D5E00517
:1025900001D50220307070BD710200004000004083
:1025A00000330050200000500002004068800020EE
:1025B00000200050E0010020002C0050F8B5144627
:1025C0000F461E460546428801880623204601F034
:1025D00031F90446287901F0FFF9208027716680DF
:1025E000204601F039F9F8BD70B5144642880079EB
:1025F0000D460102042321480C3101F01BF9002D86
:1026000001D0132100E012210170448001F024F96F
:1026100070BD0A880270120A42708A788270CA7885
:10262000C2700A7902714A794271897981710720F1
:1026300070474278037812021A430A8082788A70BF
:10264000C278CA7002790A7142794A7180798871B8
:102650000720704710B500F013F810BD70B506469E
:1026600015460C46362001F079F8022805D1E2B271
:1026700036232946304601F0B5F970BD0D30000013
:1026800010B50C21054801F0B3F90549362001F0D9
:10269000B5F90021362001F079F810BDDE90002058
:1026A000E03A0020F0B589B00521C90268460184EE
:1026B000C91C8182F8490183491E8183F74D03209B
:1026C000EB80FF210A22B93100900191A818002364
:1026D0003621074601F098F904007DD101260197C3
:1026E0000096688908AB0222102101F093F90400DA
:1026F000F3D16889EA4A102101F092F90400ECD183
:1027000003A800960190688905AB0222132101F00D
:1027100081F90400E1D102AF7002E14B0197009012
:10272000688910331022A02101F074F90400D4D17B
:10273000DC496846007A48706846407A88700A46E4
:1027400068461321808901F06BF90400C5D1082087
:10275000019700900222688906AB114601F05AF9F0
:102760000400BAD104A800960190688907AB022240
:102770000E2101F04FF904002ED1C94A68462B3AC8
:102780000E21008A01F04CF9040025D103A800961F
:102790000190688905AB0222132101F03BF9040086
:1027A0001AD10820BE4B019700906889203310226F
:1027B000A02101F02FF9040078D1BA496846007AC7
:1027C00008756846407A48750A46684613321321F0
:1027D000808901F025F900E068E0040066D102A9D3
:1027E0000920019100900222688906AB114601F090
:1027F00011F904005AD104AF01970096688907AB1C
:1028000002220E2101F006F904004FD1A44A6846C5
:102810001C3A0E21008A01F003F9040046D103A9F5
:10282000012001910090688905AB0222132101F07B
:10283000F1F804003AD102AE9B48994B0196009002
:10284000688930331022012101F0E4F804002DD111
:10285000944968462331007A08716846407A487185
:10286000CA1C68461321808901F0DAF804001DD1E2
:102870000920019600900222688906AB114601F0FA
:10288000C9F8040012D1012001970090688907ABB4
:1028900002220C2101F0BEF8040007D1804A6846EC
:1028A0000D3A0C21008A01F0BBF80446688900212A
:1028B00001F0BCF8002C03D10121362000F066FFA6
:1028C000E98801233622794800F0B4FF047000F053
:1028D000C3FF002009B0F0BD70B5704C0D4662809A
:1028E0002380E380488801F0A7F820716888208160
:1028F0006089012101F09AF86D49002008700221D9
:10290000362000F043FF6948E18802233622801E0A
:1029100000F090FF6189891C018000F09DFF00207C
:1029200070BD10B55D480021408901F07FF801219C
:10293000362000F02BFF002010BDF8B508781228D3
:1029400039D15B4D2878401E0006000E287032D128
:102950005848007801282ED1574800F0C5FA4A2877
:1029600029D9802800D980201B21143800F0B6FF17
:102970001B2148431430C2B269464F4800F0E8FAC0
:10298000464E044601467089009A801C80B201F0D0
:1029900047F800280FD12146474800F0FBFA70891C
:1029A0000021801C82B23046FFF71EFE2878401CB2
:1029B000287000F022FC0020F8BDF8B5362000F0A9
:1029C000CDFE022839D13A4D2878002835D1394832
:1029D0000078012831D1384800F086FA00282CD040
:1029E000802801D9802001E0142806D31B21143847
:1029F00000F074FF1B2148431430C2B269462E48D0
:102A000000F0A6FA254E044601467089009A801C03
:102A100080B201F005F800280FD12146264800F0C9
:102A2000B9FA70890021801C82B23046FFF7DCFDC4
:102A30002878401C287000F0E0FB0020F8BD10B59D
:102A4000164C0A46608901210A3080B200F0E8FF86
:102A5000608900210A3082B22046FFF7C5FD144983
:102A60000878401C0870002010BD70B50B4D0C4656
:102A7000688909882B46C21C1B79914221D0821D8E
:102A800091421BD12046A178083000F012FB3EE0B5
:102A90000022184639E0000002290000DE900020E4
:102AA0001B3B0020503C00200902000003D800001E
:102AB0006980002083800020C8800020C21D9142D0
:102AC00003D1A0790128E3D021E002460A329142E5
:102AD00004D1217A0F4800F076FA18E00B308142D9
:102AE00015D1207A01280AD1607A002807D1E98817
:102AF00001233622084800F09DFE00F0ADFEA079CB
:102B0000012804D121882879002200F09BFF0020B1
:102B100070BD00008380002006D8000038B5012475
:102B2000684604700C21654800F062FF634D6946F9
:102B3000EC702A1D352000F08BFF002800D02C718E
:102B400000F0D2FB5E49322000F058FF0021322015
:102B500000F01CFE38BD10B500F057FC10BD10B5DC
:102B60005648022380783222010256480E3100F086
:102B700061FE012101701321417000F06DFE10BD56
:102B800010B504464D482C238078322201024D486E
:102B90000E31801E00F04EFE0146203004720022ED
:102BA0004272084600F058FE10BD10B55023322284
:102BB0000D21454800F03EFE044600F0B1FB2046E2
:102BC00000F04AFE0221322000F0E0FD10BD3E4838
:102BD00010B5012332220D210B3800F02BFE02210B
:102BE000017000F039FE10BD10B500F05BFC10BDA7
:102BF000364B10B59A4201D91A4602E0002A00D19C
:102C0000012200F02BFF10BD10B50221322000F090
:102C1000BDFD2D48142332220D21401C00F00AFE78
:102C200000210174112202704170012181740A2176
:102C300081810521C18100F00FFE10BD224810B531
:102C40001E2332220D21C01C00F0F4FD0446012099
:102C50002077204606221E491D3000F049FD0A213A
:102C6000218261822021218361830021A182617000
:102C7000232001556420E082FF208130A081FF20C5
:102C80006130E08112202070AF2292003221114881
:102C9000FFF7AEFF204600F0DFFD10BD0A4810B57B
:102CA000012332220D210B3800F0C4FD11210170E7
:102CB00000F0D2FD10BD0849C86470476A8000204A
:102CC000B43B0020043800000E34000030750000D2
:102CD0007880002001C80000E001002010B51046F7
:102CE00000F03CFD002809D1012332220D21654866
:102CF00000F0A0FD0121017000F0AEFD002010BD2C
:102D000070B5087815460F282DD008DC01280DD0A5
:102D1000022835D003281CD00E2836D11FE01028F9
:102D200025D0112823D012282FD129E04878002857
:102D30002BD15448222332220D21801C00F07AFD31
:102D400004460146284600F071FB204600F084FD51
:102D50001BE04878002818D100F07CFB15E048788B
:102D600000F086FB11E0487800F083FB0DE0487826
:102D7000442802D0FFF748FF07E0FFF75FFF04E0B9
:102D80004878442801D100F080FB002070BD70B568
:102D90001D4616460C46104600F0E0FC022821D1E4
:102DA000280A394DFF28A8701AD03221374800F080
:102DB000E1FC0521304600F0E9FC204600F0AAFACB
:102DC00021882980617A6971214606220A31A81D6D
:102DD00000F08EFC0020FFF7D3FEFFF705FF01E0B7
:102DE000FFF7E3FE002070BD10B510460A780A2AEE
:102DF0000BD14978002903D0084600F037FB04E0E6
:102E0000052100F0C3FC00F032FB002010BD10B51E
:102E1000104600F0EEFA002010BD10B51A4801234C
:102E20008078322201021A480E3100F003FD0021A1
:102E3000017000F011FD002010BD10B510460C46C9
:102E400000F08CFC012808D12078002805D1FFF77C
:102E500082FE002801D000F014FB002010BD10B548
:102E60000C46204612220BA10C3000F055FD002824
:102E700006D10622A11C0C4800F03AFCFFF70EFF19
:102E8000002010BD023400006A80002001C800004C
:102E9000103800001107B75C49D204A34071A0B5F7
:102EA00035853EB08307000078800020F8B50446E1
:102EB0000D46481C069F24C400216160A160504358
:102EC00020601E460321083C00F0CEFD606100201A
:102ED00020210855AF4206DABE4204DC002E02DD96
:102EE000E761A661F8BDFEE70269C1688A4201DBBD
:102EF000501A704780688018401A7047F8B5154618
:102F00000F460446FFF7F0FF6168081A002811DD3C
:102F1000A84200DAC5B22069A26841198E1A616917
:102F2000002E08DC08182A46394600F0E1FB20692B
:102F300040192061F8BD0818AD1B2A46394600F03B
:102F4000D7FBE9193246606900F0D2FB2661F8BD73
:102F500030B513460D460446FFF7C6FF002816DDC0
:102F6000984200DAC3B2E068A268C118891A904298
:102F700001D1606903E0002903DC61690818286059
:102F800006E0626910182860581AC3B200E00023F6
:102F9000184630BD30B50B460446FFF7A5FF0028A4
:102FA0000EDD984200DAC3B2E168A568CA18501B6A
:102FB000A94201D1E36004E0002802DCE26000E005
:102FC0000023184630BD022903D0012900D1017029
:102FD00070470021FBE770B5BC4C16460A46034615
:102FE000257831462046FFF7EEFF2046194642304D
:102FF000FFF784FF21460846423000F045F960782B
:10300000012802D02078A84203D0FEF70EFC002051
:10301000607070BDAD4A10B5921F5278002802D082
:10302000022802D0FEE7082100E0C9B2A748C01C70
:10303000FFF7D1FFA54A0821521FA54B5018FEF7F4
:103040000AFC10BDF8B5002800D0FEE79F4D002611
:10305000AD1F2E70A81D29460078113110220128BD
:103060001DD10846133000F0E0F80446E91C08467C
:10307000213000F019F9EF1CB878012802D100F0D6
:103080008AFABE70210005D0904A924B921F1046DA
:1030900011300BE02878022803D0012801D0AE704F
:1030A000F8BD8A4A00218B4B921F0846FEF7E0FBD1
:1030B000F8BD0A460146854810B51E30FFF71EFFD1
:1030C0008249C91E0846213000F0DEF87F4CE41E1C
:1030D0006078012804D1022000F05DFA00206070C1
:1030E00072B67A48801F8178002904D1012181704D
:1030F0000020FFF7A7FF62B610BD744808B51E3068
:1031000000F08AF800281BD17048423000F084F8A3
:10311000002815D1704800906F4B6C48E121C83BE6
:103120000122C9001E30FFF7C1FEFF205F30009072
:103130006648FF2196230122F5314230FFF7B6FEA3
:1031400008BD624A10B5521F0821614B5018FEF7A6
:1031500082FB10BD5D490020C91E487088700122A5
:103160000A70C91C487088700A70704710B55B48B7
:103170000078002816D15548C01E0078012811D1CA
:1031800052484230FFF7B0FE00280BDD54494A2870
:1031900004DA0878421C0A700A2803D30020087059
:1031A00000F006FA10BD10B54E48807800023230AB
:1031B00000F0D4FA05280AD1022000F0ECF902212F
:1031C0004248FFF700FF414801213E30017010BD29
:1031D00010B501213D48FFF7F6FE3C49C91E0846DF
:1031E000213000F061F8394CE41EA078012803D1A9
:1031F00000F0D1F90020A07010BD344910B5084688
:10320000423000F051F8314CA078012803D1FEF78C
:1032100090FA0020A07010BD002804D0406900285A
:1032200001D00120704700207047F8B514460E46C3
:103230000546FFF759FE002822DDA04200DAC4B29D
:10324000E868AA6801198F1A6969002F08DC091853
:103250002246304600F04CFAE8680019E8600CE0BD
:103260000918E21B3046009200F042FA009A6969A0
:1032700090193A4600F03CFAEF600020305501E02A
:10328000002434702046F8BD10B50C460346FFF705
:103290002BFED969884206DD20331878002802D138
:1032A00001206070187010BD10B50C460346FFF782
:1032B0001BFE9969884207DC20331878012803D166
:1032C000002018700120A07010BD00008680002032
:1032D0001530002045300020520300006980002096
:1032E000EB9000206A80002010B50220FFF7E3FC7D
:1032F00000F03AF910BD10B57548012380783222EC
:10330000010274480C3100F095FA0121017000F0BF
:10331000A3FA10BD10B500F02FF9FFF7ECFF10BDB8
:10332000F0B5044693B00E20207000276770A020EF
:10333000A081E08107202074012060741C20E074CB
:10334000254622461F202035143228741646511E69
:103350000B2000F07DFB002805D01222E2745EA154
:10336000304600F0C5F922463132511E0C20119230
:1033700000F06EFB002805D02F743A465BA111982F
:1033800000F0B6F9E07C1A21081A05062D0E2ED0A1
:103390003E206946087001AA022000F059FB00286F
:1033A00006D00B226846027052A101A800F062FB11
:1033B0006846007800281AD0A84200D2054669461F
:1033C0000D70E07C6D1C8555E27C2046092115308E
:1033D0001154E17C401C081869460A7801A900F0E4
:1033E00087F969460878E27C801C1018E07413B0F5
:1033F000F0BD10B500F0B2F9032803D0052801D0C4
:10340000042801D1FFF7D1FB10BD70B5304D002469
:10341000E878022807D2012801D100F099F8E8786D
:10342000401CE87000E00124204670BD03200870B5
:103430000A204870002048820875487508220A83CF
:1034400010224A8388836422CA8320225054A020F9
:10345000C882704710B50121322000F097F9FFF7BC
:103460007AFB002801D0FFF7A0FB10BD7047704722
:10347000704710B500F072F9022801D1FFF795FBF3
:1034800010BD10B5FFF791FB10BD704710B50123BB
:1034900032220D211A4800F0CDF90121017000F00F
:1034A000DBF910BD10B50A2332220E21154800F0B9
:1034B000C1F90A210170418081800021C1807D21F4
:1034C000C900018100F0C8F910BD7047704770470E
:1034D0006A800020013000001107B75C49D204A3C4
:1034E0004071A0B535853EB0830700000303830714
:1034F000000000004441313435383020535053002F
:10350000023400000E38000010B510460C4600F0E2
:1035100025F9012809D1322201231146900200F039
:1035200089F92178017000F097F9002010BD002082
:10353000704710B505480078012804D0012000F03C
:103540002AF8002010BD0220F9E70000C480002006
:1035500010B50223322236211B4800F06BF90021FE
:10356000018000F079F910BD10B5FFF7C6FDFFF737
:10357000E8FDFFF7EFFD10BD10B536210423322220
:10358000880200F057F932210180104909884180F2
:1035900000F062F910BD10B504460B480123322239
:1035A0003621C01C00F046F9047000F055F910BD3A
:1035B000054810B5012332223621801C00F03AF96B
:1035C00000F04AF910BD000002D800006A80002017
:1035D000064C0125064E05E0E36807CC2B430C3C66
:1035E00098471034B442F7D3FCF72EFF1C3C002060
:1035F0004C3C002003B40148019001BD551B020062
:1036000003B40148019001BD0F3B030003B401481E
:10361000019001BDCF2B030003B40148019001BD0F
:10362000CB2C030003B40148019001BD09900200B6
:1036300003B40148019001BDC12D030003B401484A
:10364000019001BD0921030003B40148019001BDAF
:10365000C92D030003B40148019001BD2B6902008C
:1036600003B40148019001BDEB31030003B40148EC
:10367000019001BD3D32030003B40148019001BD3A
:10368000D721030003B40148019001BD1F210200AE
:1036900003B40148019001BD2F2F030003B401487A
:1036A000019001BD998F020003B40148019001BD52
:1036B000938F020003B40148019001BDCD8C02003C
:1036C00003B40148019001BD418F020003B40148D9
:1036D000019001BD2768020003B40148019001BDBB
:1036E0003968020003B40148019001BDB7800200AF
:1036F00003B40148019001BD213B030003B401481C
:10370000019001BD8D3D030003B40148019001BD4E
:10371000BF22020003B40148019001BDEB26030063
:1037200003B40148019001BD3524030003B40148EE
:10373000019001BD2F22020003B40148019001BD98
:10374000DD20030003B40148019001BD533B030099
:1037500003B40148019001BD9D20030003B401485A
:10376000019001BDB326030003B40148019001BDDF
:10377000FD3D030003B40148019001BDA5280300ED
:1037800003B40148019001BDD5AF020003B4014864
:10379000019001BD3126030003B40148019001BD31
:1037A000A1A5020003B40148019001BDE3A50200F8
:1037B00003B40148019001BD87A8020003B4014889
:1037C000019001BDA7A9020003B40148019001BD09
:1037D00093AA020003B40148019001BD95AB020019
:1037E00003B40148019001BDF9AB020003B40148E4
:1037F000019001BD69AC020003B40148019001BD14
:1038000017AD020003B40148019001BD77AD02007D
:1038100003B40148019001BDF1AD020003B40148B9
:10382000019001BD85AE020003B40148019001BDC5
:1038300011AF020003B40148019001BDB1230300A0
:1038400003B40148019001BD49E5020003B40148F9
:10385000019001BDF9E3020003B40148019001BDEC
:10386000E123030003B40148019001BD4BCD0200E8
:1038700003B40148019001BD99D1020003B401488D
:10388000019001BDABD0020003B40148019001BD1D
:1038900069D0020003B40148019001BD77CF020056
:1038A00003B40148019001BD01CC020003B40148FA
:1038B000019001BD29CC020003B40148019001BD73
:1038C00015D2020003B40148019001BD8DD202005F
:1038D00003B40148019001BD3350020003B4014814
:1038E000019001BDA73A030003B40148019001BD56
:1038F0005548020003B40148019001BD1F50020069
:1039000003B40148019001BD7F0C030003B40148DA
:10391000019001BDAB0C030003B40148019001BD4F
:10392000773B030003B40148019001BDD729030090
:1039300003B40148019001BD7920030003B401489C
:10394000019001BD2129030003B40148019001BD8C
:10395000C768020003B40148019001BD0D2C0300AB
:1039600003B40148019001BD1531030003B40148BF
:10397000019001BD1B66020003B40148019001BD26
:10398000652C030003B40148019001BDDB2E030048
:1039900003B40148019001BD231D020003B4014896
:1039A000019001BDC32C030003B40148019001BD87
:1039B0003B66020003B40148019001BD2B66020082
:1039C00003B40148019001BD038D020003B4014816
:1039D000019001BDCF8F020003B40148019001BDE9
:1039E000E3E3020003B40148019001BD95E3020046
:1039F00003B40148019001BD533B030003B40148E7
:103A0000019001BD8725030003B40148019001BD69
:103A10009598020003B40148019001BD95990200F8
:103A200003B40148019001BD6D9B020003B401483D
:103A3000019001BD7B9C020003B40148019001BDCF
:103A4000B7E3020003B40148019001BDF3AF0200E7
:103A500003B40148019001BDD129030003B401481A
:103A6000019001BD2528030003B40148019001BD68
:103A70001522030003B40148019001BD213B03005E
:103A800002E008C8121F08C1002AFAD17047704727
:103A9000002001E001C1121F002AFBD17047000085
:103AA000AD0500208D1C0020791D0020371E002050
:103AB000651E002079200020DD2000203D2100200F
:103AC0000101000A04280A040203AA0055032A007F
:103AD000A001FFFF2C01FF003F00FF03FF010000DA
:103AE000943B0020AC3B0020EA9000200300010042
:103AF0005365727665722054582044617461005396
:103B00006572766572205258204461746100466C7B
:103B10006F7720436F6E74726F6C00B75C49D2048C
:103B2000A34071A0B535853EB08307B85C49D20487
:103B3000A34071A0B535853EB08307BA5C49D20475
:103B4000A34071A0B535853EB08307B95C49D20466
:103B5000A34071A0B535853EB083070002D80000B0
:103B6000A526002000D80000D92800200338000036
:103B700023290020003000003B2900200E300000E7
:103B80006B2A002004D80000BB29002005D80000C3
:103B90003F2A00205C3B002001000000643B002025
:103BA000010000006C3B0020050000000000000048
:103BB0000000000000000000143C0020778000207E
:103BC0000600010001340000DD2C0020003400005C
:103BD000012D0020103400005F2E0020003800006E
:103BE000E92D0020013800008F2D0020033800004F
:103BF0000F2E002000C800003B2E002003D800003C
:103C00000935002001D800002F35002006D800001B
:103C100033350020C43B00200A0000008C3C00200B
:103C200000800020EC000000903A00208C3C002036
:103C300020900020CC000000903A00206807080087
:103C4000202A0800E0050000903A0020800C0000C7
:103C5000100000B85C49D204A34071A0B535853E80
:103C6000B08307040000BA5C49D204A34071A0B538
:103C700035853EB08307160000B95C49D204A340E5
:0C3C800071A0B535853EB0830700000040
:040000052000044192
:00000001FF
